{
  "contractName": "simplecontract",
  "abi": [
    {
      "constant": true,
      "inputs": [],
      "name": "name",
      "outputs": [
        {
          "name": "",
          "type": "string"
        }
      ],
      "payable": false,
      "stateMutability": "view",
      "type": "function"
    },
    {
      "inputs": [],
      "payable": false,
      "stateMutability": "nonpayable",
      "type": "constructor"
    },
    {
      "anonymous": false,
      "inputs": [
        {
          "indexed": false,
          "name": "evpram",
          "type": "string"
        }
      ],
      "name": "NameEvent",
      "type": "event"
    },
    {
      "constant": true,
      "inputs": [],
      "name": "getName",
      "outputs": [
        {
          "name": "",
          "type": "string"
        }
      ],
      "payable": false,
      "stateMutability": "view",
      "type": "function"
    },
    {
      "constant": false,
      "inputs": [
        {
          "name": "_name",
          "type": "string"
        }
      ],
      "name": "changeName",
      "outputs": [],
      "payable": false,
      "stateMutability": "nonpayable",
      "type": "function"
    }
  ],
  "bytecode": "0x608060405234801561001057600080fd5b506040805190810160405280600781526020017f6d79206e616d65000000000000000000000000000000000000000000000000008152506000908051906020019061005c9291906100a3565b5033600160006101000a81548173ffffffffffffffffffffffffffffffffffffffff021916908373ffffffffffffffffffffffffffffffffffffffff160217905550610148565b828054600181600116156101000203166002900490600052602060002090601f016020900481019282601f106100e457805160ff1916838001178555610112565b82800160010185558215610112579182015b828111156101115782518255916020019190600101906100f6565b5b50905061011f9190610123565b5090565b61014591905b80821115610141576000816000905550600101610129565b5090565b90565b61058f806101576000396000f300608060405260043610610057576000357c0100000000000000000000000000000000000000000000000000000000900463ffffffff16806306fdde031461005c57806317d7de7c146100ec5780635353a2d81461017c575b600080fd5b34801561006857600080fd5b506100716101e5565b6040518080602001828103825283818151815260200191508051906020019080838360005b838110156100b1578082015181840152602081019050610096565b50505050905090810190601f1680156100de5780820380516001836020036101000a031916815260200191505b509250505060405180910390f35b3480156100f857600080fd5b50610101610283565b6040518080602001828103825283818151815260200191508051906020019080838360005b83811015610141578082015181840152602081019050610126565b50505050905090810190601f16801561016e5780820380516001836020036101000a031916815260200191505b509250505060405180910390f35b34801561018857600080fd5b506101e3600480360381019080803590602001908201803590602001908080601f0160208091040260200160405190810160405280939291908181526020018383808284378201915050505050509192919290505050610325565b005b60008054600181600116156101000203166002900480601f01602080910402602001604051908101604052809291908181526020018280546001816001161561010002031660029004801561027b5780601f106102505761010080835404028352916020019161027b565b820191906000526020600020905b81548152906001019060200180831161025e57829003601f168201915b505050505081565b606060008054600181600116156101000203166002900480601f01602080910402602001604051908101604052809291908181526020018280546001816001161561010002031660029004801561031b5780601f106102f05761010080835404028352916020019161031b565b820191906000526020600020905b8154815290600101906020018083116102fe57829003601f168201915b5050505050905090565b600160009054906101000a900473ffffffffffffffffffffffffffffffffffffffff1673ffffffffffffffffffffffffffffffffffffffff163373ffffffffffffffffffffffffffffffffffffffff161415156103ea576040517f08c379a00000000000000000000000000000000000000000000000000000000081526004018080602001828103825260088152602001807f6973206f776e657200000000000000000000000000000000000000000000000081525060200191505060405180910390fd5b80600090805190602001906104009291906104be565b507f1d057d4e0bca360fa80f50b30787b994e561d0247fc45395f406cd77c2c203bc600060405180806020018281038252838181546001816001161561010002031660029004815260200191508054600181600116156101000203166002900480156104ad5780601f10610482576101008083540402835291602001916104ad565b820191906000526020600020905b81548152906001019060200180831161049057829003601f168201915b50509250505060405180910390a150565b828054600181600116156101000203166002900490600052602060002090601f016020900481019282601f106104ff57805160ff191683800117855561052d565b8280016001018555821561052d579182015b8281111561052c578251825591602001919060010190610511565b5b50905061053a919061053e565b5090565b61056091905b8082111561055c576000816000905550600101610544565b5090565b905600a165627a7a723058209329488c39b0ad8bc49b1cf9861bd7f2bbc6c7270db982b22dc61937d89d73460029",
  "source": "pragma  solidity ^0.4.25;\r\n\r\ncontract simplecontract {\r\n\tstring public name;\r\n\taddress private owner;\r\n\r\n\tconstructor() public {\r\n\t\tname = 'my name';\r\n\t\towner = msg.sender;\r\n\t}\r\n\tevent NameEvent(string evpram);\r\n\r\n\tmodifier onlyOwner(){\r\n\t\trequire(msg.sender == owner, \"is owner\");\r\n\t\t_;\r\n\t}\r\n\r\n\tfunction getName() public view returns (string memory){\r\n\t\treturn (name);\r\n\t}\r\n\r\n\tfunction changeName(string memory _name) public onlyOwner{\r\n\t\tname = _name;\r\n\t\temit NameEvent(name);\r\n\t}\r\n}\r\n",
  "sourcePath": "C:/Users/Goby/Desktop/smartcontract/contracts/simpleContract.sol",
  "compiler": {
    "name": "solc",
    "version": "0.4.25+commit.59dbf8f1.Emscripten.clang"
  },
  "schemaVersion": "3.2.5",
  "updatedAt": "2020-09-21T12:16:37.104Z",
  "networkType": "ethereum",
  "devdoc": {
    "methods": {}
  },
  "userdoc": {
    "methods": {}
  }
}